:100000000C949E010C9452080C942B080C947908C3
:100010000C9479080C9479080C94C6010C94C601D0
:100020000C94C6010C94C6010C94C6010C94C60134
:100030000C94C6010C94C6010C94C6010C94C60124
:100040000C94E1070C94C6010C94AF070C9489073B
:100050000C94C6010C94C6010C94C6010C94C60104
:100060000C94C6010C94C6013D3D3D3D3D3D3D3DDA
:100070003D3D3D3D3D3D3D3D3D3D3D3D3D3D3D3DB0
:100080003D3D3D3D3D3D3D3D3D3D3D3D3D3D3D3DA0
:100090003D3D3D3D3D3D3D3D3D3D3D3D3D3D3D3D90
:1000A0003D3D3D3D3D3D3D3D3D3D3D3D3D3D3D3D80
:1000B0003D3D3D3D3D3D3D3D3D3D3D3D3D3D3D3D70
:1000C0003D3D3D3D3D3D3D3D3D3D3D3D3D3D3D3D60
:1000D0003D3D3D3D3D3D3D3D3D3D3D3D3D3D3D3D50
:1000E0003D3D3D3D3D3D3D3D3D00205B535D20534D
:1000F0006C656570204D6F646520506F7765722068
:10010000446F776E00205B3C206F72203E5D20665E
:100110006F727761726473206F72206261636B77B4
:10012000617264732074686520747261636B00206F
:100130005B2B206F72202D5D20696E637265617389
:100140006573206F722064656372656173657320E7
:1001500074686520766F6C756D6500205B705D203E
:1001600070617573652F636F6E74696E7565206D50
:100170007573696300205B735D2073746F707069C1
:100180006E6720726570726F64756374696F6E005C
:10019000205B312D335D20546F2073656C65637473
:1001A00020746865204D50332066696C6500436F8C
:1001B0006D6D616E64733A003D3D3D3D3D3D3D3D9D
:1001C0003D3D3D3D3D3D3D3D3D3D3D3D3D3D3D3D5F
:1001D0003D3D3D3D3D3D3D3D3D3D3D3D3D3D3D3D4F
:1001E0003D3D3D3D3D3D3D3D3D3D3D3D3D3D3D3D3F
:1001F0003D3D3D3D3D3D3D3D3D3D3D3D3D3D3D3D2F
:100200003D3D3D3D3D3D3D3D3D3D3D3D3D3D3D3D1E
:100210003D3D3D3D3D3D3D3D3D3D3D3D3D3D3D3D0E
:100220003D3D3D3D3D3D3D3D3D3D3D3D3D3D3D3DFE
:100230003D3D3D3D3D3D3D3D3D3D00000000002438
:100240000027002A0000000008000201000003044B
:100250000700000000000000004446506C61796512
:1002600072204D696E69206D6F64756C6520696ED2
:10027000697469616C697A6564210A0D43757272EB
:10028000656E7420486F75723A20004446506C6168
:10029000796572204D696E69206D6F64756C65209B
:1002A000696E697469616C697A6564210A0D4375C8
:1002B0007272656E7420566F6C756D653A200049D8
:1002C0006E697469616C697A696E67204446506C26
:1002D00061796572206D6F64756C65202E2E2E20FD
:1002E0005761697421004446526F626F742044461E
:1002F000506C61796572204D696E690000000000E4
:1003000023002600290000000000250028002B0003
:1003100004040404040404040202020202020303AB
:1003200003030303010204081020408001020408B3
:100330001020010204081020F108610D11241FBED5
:10034000CFEFD8E0DEBFCDBF12E0A0E0B1E0E0E942
:10035000FBE102C005900D92A431B107D9F723E06B
:10036000A4E1B2E001C01D92A834B207E1F711E0A8
:10037000CDE9D1E004C02197FE010E94B50DCC3932
:10038000D107C9F70E94BA090C94BB0D0C94000068
:10039000AF92BF92CF92DF92EF92FF920F931F9393
:1003A000CF93DF936C017B018B01040F151FEB01D1
:1003B0005E01AE18BF08C017D10759F06991D60188
:1003C000ED91FC910190F081E02DC6010995892BFA
:1003D00079F7C501DF91CF911F910F91FF90EF90B9
:1003E000DF90CF90BF90AF900895FC01538D448D66
:1003F000252F30E0842F90E0821B930B541710F0D0
:10040000CF96089501970895FC01918D828D9817DC
:1004100061F0A28DAE0FBF2FB11D5D968C91928DB4
:100420009F5F9F73928F90E008958FEF9FEF0895E5
:10043000FC01918D828D981731F0828DE80FF11DAE
:10044000858D90E008958FEF9FEF0895FC01918DC9
:10045000228D892F90E0805C9F4F821B91098F73C2
:100460009927089586E692E00E94260221E0892BD2
:1004700009F420E0822F089580E090E0892B29F094
:100480000E94320281110C9400000895FC01A48D99
:10049000A80FB92FB11DA35ABF4F2C91848D90E0A6
:1004A00001968F739927848FA689B7892C93A08989
:1004B000B1898C91837080648C93938D848D981313
:1004C00006C00288F389E02D80818F7D80830895A6
:1004D000EF92FF920F931F93CF93DF93EC0181E094
:1004E000888F9B8D8C8D98131AC0E889F98980813B
:1004F00085FF15C09FB7F894EE89FF896083E8896E
:10050000F98980818370806480839FBF81E090E05F
:10051000DF91CF911F910F91FF90EF900895F62EEC
:100520000B8D10E00F5F1F4F0F731127E02E8C8D86
:100530008E110CC00FB607FCFACFE889F9898081CB
:1005400085FFF5CFCE010E944602F1CFEB8DEC0F77
:10055000FD2FF11DE35AFF4FF0829FB7F8940B8FE8
:10056000EA89FB8980818062CFCF0F931F93CF935D
:10057000DF938C01D0E0C0E0F801EC0FFD1F649127
:10058000662341F086E692E00E946802892B11F012
:100590002196F2CFCE01DF91CF911F910F91089557
:1005A000CF93DF93EC01888D8823B9F0AA89BB89AA
:1005B000E889F9898C9185FD03C0808186FD0DC095
:1005C0000FB607FCF7CF8C9185FFF2CF808185FFB6
:1005D000EDCFCE010E944602E9CFDF91CF91089581
:1005E000833081F028F4813099F08230A9F00895A9
:1005F0008730A9F08830C9F08430B1F48091800050
:100600008F7D03C0809180008F7780938000089554
:1006100084B58F7784BD089584B58F7DFBCF80919D
:10062000B0008F778093B00008958091B0008F7DE7
:10063000F9CFCF93DF93282F30E0F901EB5BFD4F2B
:100640008491F901EC5DFC4FD491F901E05FFC4F1E
:10065000C491CC23A1F081110E94F002EC2FF0E0B4
:10066000EE0FFF1FE450FD4FA591B491EC91ED23E7
:1006700081E090E009F480E0DF91CF91089580E07F
:1006800090E0FACF1F93CF93DF93282F30E0F9014A
:10069000EB5BFD4F8491F901EC5DFC4FD491F901C6
:1006A000E05FFC4FC491CC23A9F0162F81110E946A
:1006B000F002EC2FF0E0EE0FFF1FEA5FFC4FA59178
:1006C000B4918FB7F894EC91111108C0D095DE2346
:1006D000DC938FBFDF91CF911F910895DE2BF8CF70
:1006E000CF93DF9390E0FC01EC5DFC4F2491805FA1
:1006F0009C4FFC0184918823C9F090E0880F991FDA
:10070000FC01E55CFD4FA591B491FC01EA5FFC4F53
:10071000C591D49161110DC09FB7F8948C9120952B
:1007200082238C938881282328839FBFDF91CF91D8
:100730000895623051F49FB7F8943C91822F8095D0
:1007400083238C93E8812E2BEFCF8FB7F894EC9115
:100750002E2B2C938FBFEACF3FB7F8948091550290
:1007600090915602A0915702B091580226B5A89BCD
:1007700005C02F3F19F00196A11DB11D3FBFBA2F33
:10078000A92F982F8827BC01CD01620F711D811DF3
:10079000911D42E0660F771F881F991F4A95D1F778
:1007A00008958F929F92AF92BF92CF92DF92EF9275
:1007B000FF926B017C010E94AC034B015C01C114F0
:1007C000D104E104F104B9F00E94AC03681979097D
:1007D0008A099B09683E73408105910580F321E0F9
:1007E000C21AD108E108F10888EE880E83E0981E4D
:1007F000A11CB11CE4CFFF90EF90DF90CF90BF9091
:10080000AF909F908F90089580910303909104037F
:10081000DC01ED91FC910084F185E02D0995892B97
:1008200009F4D5C060E070E0CB010E94D1032091B3
:1008300021038091030390910403DC01ED91FC916D
:100840000284F385E02D21110BC0099580930D03DF
:100850008E37D1F6809121038F5F80932103D4CF0F
:10086000099590912103E92FF0E0ED5FFC4F82871D
:100870009230A9F09930C9F0913099F48F3F89F006
:100880001092210381E0809323031092260310929B
:100890002503809327031092280380E00895863073
:1008A00079F79F5F90932103AFCF8F3E49F7209157
:1008B0000F0380910E03280F3327331FE09110039D
:1008C000C9018E0F911D20911103280F392F311D61
:1008D0004091120350E0240F351F8091130390E0E4
:1008E0006091140370E0762F6627F09115036F0F67
:1008F000711D280F391F3195219531096217730732
:1009000009F0BECF10922103E13419F410922803AC
:100910002FC0E0932403542F4427840F951F9093F6
:10092000260380932503EA53E63108F046C0F0E041
:10093000E456FB4F0C94B50DC904D104DB04B2049A
:10094000DB04BB04D904DD04DB04DB04DB04DB04CF
:10095000DB04DB04DB04DB04DD04DB04DB04DB049D
:10096000DB04DB0485E08093230381E0809327038D
:1009700080912703089580FF02C089E0F4CF81FFB2
:1009800002C084E0F0CF83709927892B89F38AE035
:10099000EACF80FF02C087E0E6CF81FFE9CF82E0A7
:1009A000E2CF80FF02C088E0DECF81FFE1CF83E0AD
:1009B000DACF86E0D8CF8BE0D6CF81E080932303D7
:1009C0001092260310922503809327039FCF8091D6
:1009D0002803882369F22FB7F894809162029091DE
:1009E0006302A0916402B09165022FBF409105039C
:1009F000509106036091070370910803841B950BC7
:100A0000A60BB70B4091090350910A0360910B03A9
:100A100070910C0384179507A607B70708F4A8CFB1
:100A200010922103109223031092260310922503A3
:100A300081E02FCF80931A03272F30E070931C039F
:100A400060931D034091190390911803490F552796
:100A5000551F840F952F911D40911B03840F911DED
:100A6000820F931F680F792F711D71956195710920
:100A700070931E0360931F03442361F08091280349
:100A8000882341F060E070E0CB010E94D1030E9416
:100A90000404F4CF8091030390910403DC01ED91F1
:100AA000FC910280F381E02D4AE050E067E173E0C1
:100AB00009952FB7F8948091620290916302A091FA
:100AC0006402B09165022FBF8093050390930603E3
:100AD000A0930703B093080380911B0391E0811159
:100AE00001C090E090932803811106C06AE070E095
:100AF00080E090E00C94D103089570E060E00C94E5
:100B00001A058F929F92AF92BF92CF92DF92EF928F
:100B1000FF926B017C018FB7F894809062029090F5
:100B20006302A0906402B09065028FBFC114D1042B
:100B3000E104F10441F4C0900903D0900A03E0906D
:100B40000B03F0900C030E94040481111AC09FB79C
:100B5000F894409162025091630260916402709136
:100B600065029FBF481959096A097B09C416D50651
:100B7000E606F70630F060E070E0CB010E94D1039A
:100B8000E2CFFF90EF90DF90CF90BF90AF909F901B
:100B90008F900895089520915B0230915C02281790
:100BA000390771F49091590280915A02981741F0D7
:100BB000E0915902F0E0EC5EFD4F808190E00895F5
:100BC0008FEF9FEF08950895EF92FF920F931F9379
:100BD000CF93DF93DC015C96ED90FC905D97E11480
:100BE000F10479F481E090E013969C938E93129730
:100BF00090E080E0DF91CF911F910F91FF90EF90F7
:100C000008955196ED91FC91529750968C91509782
:100C1000982F90950FB75E962C915E97122F1270B9
:100C200021FD6095F8942081112319F1282B208350
:100C3000E7012197F1F728E0462F50E0308160FF6F
:100C40001AC0382B3083E7012197F1F7BA01759567
:100C50006795215089F7112381F080818923808352
:100C60000FBF5C968D919C910197F1F781E090E028
:100C7000C1CF2923DCCF3923E5CF9081892BEFCF5A
:100C800020915B0230915C022817390761F4809152
:100C90005A022091590290E0805C9F4F821B91097B
:100CA0008F739927089590E080E0089520915B026A
:100CB00030915C0228173907B9F49091590280915C
:100CC0005A02981789F0E0915902F0E0EC5EFD4F6E
:100CD00080812091590230E02F5F3F4F2F733327DF
:100CE0002093590290E008958FEF9FEF089590E0D0
:100CF00080E00895E8988AEC95E090930101809354
:100D00000001089588E40E947D0560E070E0CB0159
:100D10000E948105811103C08FEF9FEF089510920B
:100D20002703809123038B30B9F78091250390919D
:100D300026030895CF93C82F81E090E00E947D0D97
:100D4000C81731F06C2F81E090E0CF910C94850DA5
:100D5000CF910895FC0101900020E9F73197AF0190
:100D6000481B590BBC0186E692E00C94C8018DE348
:100D700091E00C94AA06CF93DF930E94B502EC0198
:100D80000E94B7068C0F9D1FDF91CF9108950E949E
:100D9000B70688EB91E00E94BB068EEA91E00E94C4
:100DA000BB0680E991E00E94BB0685E791E00E94C6
:100DB000BB068BE591E00E94BB068FE291E00E94AA
:100DC000BB0685E091E00E94BB068AEE90E00E949F
:100DD000BB060E94B70688E690E00C94BB068F9293
:100DE0009F92AF92BF920F931F93CF93DF93CDB794
:100DF000DEB7A1970FB6F894DEBF0FBECDBF19A224
:100E0000423008F44AE08E010F5D1F4F842E912C72
:100E1000B12CA12CA50194010E94930DE62FB901DC
:100E2000CA01EA30F4F4E05DD801EE938D01232B82
:100E3000242B252B79F790E080E0109719F0CD0155
:100E40000E94AA06A1960FB6F894DEBF0FBECDBFD2
:100E5000DF91CF911F910F91BF90AF909F908F9096
:100E60000895E95CE1CFCF92DF92EF92FF92CF93AA
:100E7000DF936B017C016DE286E692E00E946802DE
:100E8000EC0166277727CB016C197D098E099F0934
:100E90004AE00E94EF068C0F9D1FDF91CF91FF90DB
:100EA000EF90DF90CF900895CF93DF93BC01990F1F
:100EB000880B990B97FF0AC00E943307EC010E9430
:100EC000B7068C0F9D1FDF91CF9108954AE00E94D5
:100ED000EF06F4CFCF93DF93682F70E090E080E0CF
:100EE0004AE00E94EF06EC010E94B7068C0F9D1F9E
:100EF000DF91CF9108950C94AA06CF93DF930E94BF
:100F0000AA06EC010E94B7068C0F9D1FDF91CF91BE
:100F100008951F920F920FB60F9211242F933F93B3
:100F20004F935F936F937F938F939F93AF93BF93F1
:100F3000EF93FF9386E692E00E944602FF91EF91C5
:100F4000BF91AF919F918F917F916F915F914F91E1
:100F50003F912F910F900FBE0F901F9018951F92E9
:100F60000F920FB60F9211242F938F939F93EF93AD
:100F7000FF93E0917602F09177028081E0917C020C
:100F8000F0917D0282FD1BC0908180917F028F5F76
:100F90008F7320918002821741F0E0917F02F0E090
:100FA000EA59FD4F958F80937F02FF91EF919F91BA
:100FB0008F912F910F900FBE0F901F9018958081E9
:100FC000F4CF1F920F920FB60F9211242F933F93DD
:100FD0008F939F93AF93BF9380916202909163022E
:100FE000A0916402B09165023091540223E0230F76
:100FF0002D3758F50196A11DB11D20935402809301
:10100000620290936302A0936402B09365028091A0
:10101000550290915602A0915702B0915802019644
:10102000A11DB11D8093550290935602A0935702C3
:10103000B0935802BF91AF919F918F913F912F91A3
:101040000F900FBE0F901F90189526E8230F029661
:10105000A11DB11DD2CF1F920F920FB60F92112476
:101060002F933F934F935F936F937F938F939F93B0
:10107000AF93BF93EF93FF93E0910201F0910301CF
:101080000995FF91EF91BF91AF919F918F917F91C2
:101090006F915F914F913F912F910F900FBE0F90E5
:1010A0001F9018951F920F920FB60F9211242F9335
:1010B0003F934F935F936F937F938F939F93AF93E0
:1010C000BF93EF93FF93E0910001F0910101099527
:1010D000FF91EF91BF91AF919F918F917F916F9110
:1010E0005F914F913F912F910F900FBE0F901F90E6
:1010F00018951F920F920FB60F9211242F933F93C2
:101100004F935F936F937F938F939F93AF93BF930F
:10111000EF93FF93E0915B02F0915C02309749F00E
:10112000A685B7858585968D91FF14C09C918923EE
:10113000A1F4FF91EF91BF91AF919F918F917F911A
:101140006F915F914F913F912F910F900FBE0F9034
:101150001F9018959C91892361F7A389B4899C916C
:101160008589809589238C93868997890197F1F7E2
:10117000608D718DA685B785558538E020E0CB015F
:101180000197F1F7822F90E095958795282F4C9144
:10119000452309F02068315091F7868D81FD209517
:1011A00080915A0290E001968F73992730915902ED
:1011B000381799F0A0915A02B0E0AC5EBD4F2C9365
:1011C00080935A02828D938D0197F1F7A389B48998
:1011D0008C919589892B8C93ACCF868D8160868F7D
:1011E000F1CF109269021092680288EE93E0A0E0BD
:1011F000B0E080936A0290936B02A0936C02B0936C
:101200006D022DE131E0309367022093660225ECF8
:1012100030E0309373022093720224EC30E030937C
:1012200075022093740220EC30E030937702209313
:10123000760221EC30E0309379022093780222ECA0
:1012400030E030937B0220937A0226EC30E030933A
:101250007D0220937C0210927F02109280021092F5
:1012600081021092820210922C0310922B03809321
:101270002D0390932E03A0932F03B09330038FE29E
:1012800091E090932A0380932903109240031092D7
:101290003F031092420310924103109244031092B4
:1012A00043031092460310924503609147036E7FFB
:1012B0006D7F609347036695617081E068278AE0DF
:1012C0000E94420361E08AE00E947003EEE2F3E0D4
:1012D000E491E0933903EAE1F3E0E491F0E0EE0F0A
:1012E000FF1FEA5FFC4F8591949190933B0380939D
:1012F0003A0360E08BE00E9470038091470381FD18
:1013000004C061E08BE00E9442038BE080933503D0
:10131000EFE2F3E0E491E0933603EBE1F3E0E491F4
:10132000F0E0EE0FFF1FE450FD4F859194919093F4
:1013300038038093370384EF91E0A0E0B0E080931E
:10134000090390930A03A0930B03B0930C038AE064
:10135000E5E0F1E0A7E1B3E001900D928A95E1F7B5
:101360001092210382E080932203109227031092AF
:1013700028030895789484B5826084BD84B5816023
:1013800084BD85B5826085BD85B5816085BD809150
:101390006E00816080936E001092810080918100C8
:1013A00082608093810080918100816080938100C0
:1013B000809180008160809380008091B100846082
:1013C0008093B1008091B00081608093B0008091E3
:1013D0007A00846080937A0080917A0082608093A2
:1013E0007A0080917A00816080937A0080917A00FF
:1013F000806880937A001092C10061E083E00E94CF
:10140000700361E083E00E94420310924403109253
:101410004303109242031092410310924003109232
:101420003F038DE991E090934603809345039091AB
:101430003503963108F047C02DEB30E03093400380
:1014400020933F032BE931E0309342032093410383
:101450002CE231E030934403209343032091680051
:1014600084E0983048F031E09E3008F430E081E0CC
:1014700001C0880F3A95EAF7822B809368002DE629
:1014800030E0983050F02BE630E09E3030F02CE623
:1014900030E0963110F030E020E030933D032093AF
:1014A0003C03292F30E0983008F07AC281E001C077
:1014B000880F9A95EAF780933E03809145039091B7
:1014C00046030197F1F78091430390914403892BE0
:1014D00049F1E0915B02F0915C0223E0E932F2070E
:1014E00009F1309739F0A389B4899C918589809559
:1014F00089238C93809147038E7F809347031092BA
:101500005A021092590289E293E090935C02809310
:101510005B02E0913C03F0913D03808190913E039A
:10152000892B8083E0917602F091770282E08083BC
:10153000E0917202F09173021082E0917402F091D6
:10154000750280E1808310927E02E0917A02F09130
:101550007B0286E08083E0917802F09179028081BD
:1015600080618083E0917802F091790280818860C7
:101570008083E0917802F091790280818068808395
:10158000E0917802F091790280818F7D808362E022
:1015900082E00E94700360E084E00E94700380E4B7
:1015A00091E00E947D070E94B70686EE92E00E94BD
:1015B000BB068FEB92E00E94BB0689E293E090931A
:1015C00004038093030381E080931B038CE00E945B
:1015D0007D0560ED77E080E090E00E94810568EC99
:1015E00070E080E090E00E94D103109227030E94F7
:1015F000820690935E0280935D020E94540769EC1C
:1016000070E080E090E00E94D10380915D029091B3
:101610005E02181619065CF78BE892E00E94B5028C
:1016200081E090E00E947D0D90E0909360028093B5
:101630005F024F9734F084E190E0909360028093D2
:101640005F0280915F02909160020E94540789E5D9
:1016500092E00E94B50290E080E00E947D0D8F5FD5
:10166000809361028D3018F081E080936102809157
:1016700061020E946A0789E591E00E947B078091E0
:101680005D0290915E020E94540764E670E080E083
:1016900090E00E94D10360915F0270916002772711
:1016A00086E00E941A056091610270E083E00E946A
:1016B0001A0564E378E080E090E00E94D1030E9484
:1016C000C706C0E0D0E093E5C92EDD24D3942CE01A
:1016D000B22E0EE110E03AE7E32E36E0F32E109240
:1016E0000401412C512C3201439486E692E00E9481
:1016F0002602892B41F582E00E941903892B09F00B
:101700005FC1809161028F5F8D3008F056C1809378
:1017100061026091610270E083E00E941A0564E357
:1017200078E080E090E00E94D10387E691E00E949B
:101730007B07809161020E946A076091610290E0DC
:1017400080E00E94850D80910401833509F458C121
:1017500086E692E00E9404028093040185E791E00E
:101760000E947B076091040186E692E00E94680275
:101770000E94B7068091040180538C30E8F48823DE
:1017800009F446C1809361028FE791E00E947B07D4
:10179000809161020E946A07E0916102F0E0E15FDE
:1017A000FE4F608170E083E00E941A056091610243
:1017B00090E080E00E94850D80910401833749F418
:1017C00086E10E947D0584E991E00E947D070E94E8
:1017D000C70680910401803719F48DE00E947D05D1
:1017E000809104018B3229F584E00E947D0568EC2C
:1017F00070E080E090E00E94D10380915F029091C0
:10180000600201968D3221E092070CF004C19093A2
:10181000600280935F0283EA91E00E947B078091DF
:101820005F02909160020E94540780915F020E94C3
:101830009A06809104018C3301F582E00E947D05B7
:1018400068EC70E080E090E00E94D10383EB91E0CF
:101850000E947D078DEB91E00E947B078CE40E9443
:101860007D0560E070E0CB010E9481058111D8C048
:101870008FEF9FEF01970E945407809104018E33F0
:10188000E1F4809161028F5F8D3008F0D5C08093C4
:1018900061026091610270E083E00E941A0587E6B0
:1018A00091E00E947B07809161020E946A0760912B
:1018B000610290E080E00E94850D809104018D32EC
:1018C000E1F485E00E947D058CEC91E00E947B07AD
:1018D00080915F0290916002019797FDB0C0909354
:1018E000600280935F0280915F02909160020E948B
:1018F000540780915F020E949A068091040183350B
:1019000009F0D1C08CED91E00E947D0760E083E09A
:101910000E94420360E08AE00E94420368EC70E0AB
:1019200080E090E00E94D103F0920101E09200017A
:10193000809169008C7F80936900E89A64E670E08A
:1019400080E090E00E94D10383B7817F846083BFF1
:1019500083B7816083BF83B7816083BF889583B776
:101960008E7F83BF83B78E7F83BF61E083E00E9459
:1019700042038FEE91E00E947B0780915F0290917D
:1019800060020E9454070E948206181619060CF481
:101990005BC069EC70E080E090E00E94D103F3CF7F
:1019A0009E3040F42850310981E001C0880F2A950B
:1019B000EAF781CD2E503109F7CFD0926102A9CE3E
:1019C00084E00E941903019709F08FCE4AE0C30119
:1019D000B2010E94EF0664EF71E080E090E00E94A7
:1019E000D1038FEF481A580A680A780A24E0421691
:1019F00051046104710409F078CEC0920401A3CEB1
:101A000086E692E00E942602892B09F0A1CEB2CE92
:101A1000B0926102B9CE1093600200935F02FBCED8
:101A200010922703809123038B3009F021CF8091FE
:101A30002503909126031ECFD09261022ACF1092E7
:101A4000600210925F024FCF64E670E080E090E0A9
:101A50000E94D10360915F0270916002772786E057
:101A60000E941A05809161028F5F8D3038F5809356
:101A700061026091610270E083E00E941A0587E6CE
:101A800091E00E947B07809161020E946A07609149
:101A9000610290E080E00E94850D64E378E080E0E0
:101AA00090E00E94D103209709F419CE0E943202DF
:101AB000882309F414CE0E94000011CED092610256
:101AC000D8CF8FE291E090932A03809329038091ED
:101AD0005B0290915C028952934071F4E0913C0367
:101AE000F0913D03908180913E038095892380830E
:101AF00010925C0210925B020895F999FECF92BD9C
:101B000081BDF89A992780B50895262FF999FECFBF
:101B10001FBA92BD81BD20BD0FB6F894FA9AF99A0A
:101B20000FBE01960895A1E21A2EAA1BBB1BFD0150
:101B30000DC0AA1FBB1FEE1FFF1FA217B307E407AC
:101B4000F50720F0A21BB30BE40BF50B661F771F04
:101B5000881F991F1A9469F76095709580959095E4
:101B60009B01AC01BD01CF010895EE0FFF1F059051
:101B7000F491E02D099411E0CDE9D1E004C0FE011B
:101B80000E94B50D2196CE39D107C9F7F894FFCF41
:101B9000CA05CA05707EFF06000100000000EF7E46
:101BA000FF0603000001FEF7EF000000006802C816
:101BB00001F501D00226020402180200000000E430
:101BC00005C8017706E30540065606CB050D0A0059
:101BD000496E697469616C69736174696F6E2063C1
:101BE0006F6D706C6574652E00466F6C6465722055
:101BF000436F756E743A0043757272656E74204857
:101C00006F75723A00636F6D6D616E643A20004DBE
:101C10007573696320726570726F64756374696F40
:101C20006E3A20004D757369632053746F70706550
:101C300064210043757272656E7420766F6C756DE9
:101C4000653A0050726576696F75733A0043757234
:101C500072656E7420747261636B3A0043757272C0
:101C6000656E7420566F6C756D653A00456E7465CF
:101C700072696E6720736C656570202E2E2E00428F
:101C800061636B20746F2057616B6575702E2E2E0B
:101C90000A0D43757272656E7420566F6C756D65B2
:041CA0003A200000E6
:00000001FF
